:020000040800F2
:1000000018180020C90100080F2D0008AD020008D3
:100010000D2D0008C70900089932000800000000F3
:10002000000000000000000000000000DB010008EC
:10003000150A00080000000037020008912E000891
:10004000E3010008E3010008E3010008E301000800
:10005000E3010008E3010008E3010008E3010008F0
:10006000E3010008E3010008E3010008E3010008E0
:10007000E3010008E3010008E3010008E3010008D0
:10008000FD090008090A0008E3010008E30100086F
:10009000E3010008E3010008E3010008E3010008B0
:1000A000E3010008E3010008E3010008E3010008A0
:1000B000E30100086D2F0008E3010008912100080A
:1000C000E3010008E3010008E3010008E301000880
:1000D000E301000861320008E3010008E3010008C1
:1000E000E3010008E3010008E301000800F002F862
:1000F00000F05AF80AA090E8000C82448344AAF168
:100100000107DA4501D100F04FF8AFF2090EBAE865
:100110000F0013F0010F18BFFB1A43F0010318473B
:100120005C6500007C6500000A444FF0000C10F88C
:10013000013B13F0070408BF10F8014B1D1108BF65
:1001400010F8015B641E05D010F8016B641E01F805
:10015000016BF9D113F0080F1EBF10F8014BAD1C55
:100160000C1B09D16D1E58BF01F801CBFAD505E073
:1001700014F8016B01F8016B6D1EF9D59142D6D3CD
:10018000704700000023002400250026103A28BFF5
:1001900078C1FBD8520728BF30C148BF0B607047F9
:1001A0001FB51FBD10B510BD00F068FA1146FFF76E
:1001B000F7FF00F0B5FA00F086FA03B4FFF7F2FF9C
:1001C00003BC00F02FFA00000948804709480047A7
:1001D000FEE7FEE7FEE7FEE7FEE7FEE7FEE7FEE7F7
:1001E000FEE7FEE704480549054A064B7047000054
:1001F000692F0008ED0000081812002018180020D0
:100200001814002018140020EFF3108072B6704705
:1002100080F310887047324A1368012B04D04FF0E6
:10022000010313602F4A10602F4A11602F484FF0CE
:10023000805101607047EFF3108272B62848016860
:1002400091B14FF0000101602648016829B1EFF338
:10025000098121E9F00F00680160234909680968F4
:10026000B1E8F00F81F3098882F310884EF0040E94
:1002700070471D4908601B494FF00000086018498D
:100280004FF0010008601A481A49D0F8002041EAEE
:100290000201016015484FF0805101601648006866
:1002A000006880F3088861B662B670471EF0040FDC
:1002B0000CBFEFF30880EFF3098020E9F00F40F85E
:1002C00004ED1EF0040F0CBF80F3088880F309884A
:1002D00000B504F06BFD5DF804EB4EF0040E7047C2
:1002E000740000206C0000207000002004ED00E08D
:1002F00020ED00E00000FFFF08ED00E010B5002059
:1003000000F096F9FFF74EFFBDE81040012000F025
:1003100089B940EA0103024630B59B0710D14FF07E
:10032000013400E008C208C91D1B9D4315EAC41F23
:10033000F8D013F0FF0102F8011B0DD01B0AF8E7FB
:1003400011F8013B002B02F8013B05D011F8013BED
:10035000002B02F8013BF3D130BD10B5431C02E085
:1003600010F8011B71B18107FAD14FF0013202C8B8
:100370008C1A8C4314EAC211F9D0C01A0A0603D0B1
:10038000C01E10BDC01A10BD0A0401D0801E10BDD1
:100390000902FCD0401E10BD40EA010370B59B0766
:1003A0002ED14FF00136042A2AD308C810C99D1B4C
:1003B0009D43121F15EAC61517D0D8B2E1B2401AF4
:1003C00050EA056110D198B2A1B2401A50EA054135
:1003D0000AD123F07F4024F07F41401A50EA0521E2
:1003E00002D1180EA0EB146070BDA342DBD018BA86
:1003F00021BA884201D9012070BD4FF0FF3070BD95
:100400000AB9002070BD10F8013B11F8014B63B12F
:10041000A3420AD1521E08D010F8013B11F8014B3B
:100420001BB1A34201D1521EEDD1181B70BD421E5B
:1004300012F8013F002BFBD111F8013B002B02F811
:10044000013BF9D17047032A40F2308010F0030CD1
:1004500000F0158011F8013BBCF1020F624498BF17
:1004600011F801CB00F8013B38BF11F8013BA2F1B4
:10047000040298BF00F801CB38BF00F8013B11F02F
:10048000030300F02580083AC0F0088051F8043BCF
:10049000083A51F804CBA0E80810F5E7121D5CBF3C
:1004A00051F8043B40F8043BAFF30080D20724BF6F
:1004B00011F8013B11F801CB48BF11F8012B24BF03
:1004C00000F8013B00F801CB48BF00F8012B704752
:1004D00010B5203AC0F00B80B1E81850203AA0E8DF
:1004E0001850B1E81850A0E81850BFF4F5AF5FEA13
:1004F000027C24BFB1E81850A0E8185044BF18C9C6
:1005000018C0BDE810405FEA827C24BF51F8043B6C
:1005100040F8043B08BF7047D20728BF31F8023BC0
:1005200048BF11F8012B28BF20F8023B48BF00F854
:10053000012B70474FF000020429C0F0128010F028
:10054000030C00F01B80CCF1040CBCF1020F18BFAF
:1005500000F8012BA8BF20F8022BA1EB0C0100F042
:100560000DB85FEAC17C24BF00F8012B00F8012B15
:1005700048BF00F8012B70474FF0000200B513464A
:1005800094469646203922BFA0E80C50A0E80C50B3
:10059000B1F12001BFF4F7AF090728BFA0E80C5064
:1005A00048BF0CC05DF804EB890028BF40F8042B5D
:1005B00008BF704748BF20F8022B11F0804F18BFCA
:1005C00000F8012B704710B5044610F0030F08BF68
:1005D00011F0030F40F015804FF0013E121FC0F2E2
:1005E0000E8051F8043BA3EB0E0C2CEA030C1CEA22
:1005F000CE1C08BF40F8043BF0D0A1F1040102F189
:100600000402521E08DB11F8013B002B00F8013BED
:10061000F7D11146FFF78EFF204610BD7047704797
:100620007047000001491820ABBEFEE7260002001B
:1006300010B500F00BF8BDE8104000F001B87047AD
:10064000002801D0FFF7EEBF7047000010B5002171
:1006500002A000F041F8012010BD000053494741BD
:100660004252543A2041626E6F726D616C20746523
:10067000726D696E6174696F6E000000754600F0FE
:100680004BF8AE4605006946534620F00700854604
:1006900018B020B5FFF7A6FDBDE820404FF00006DA
:1006A0004FF000074FF000084FF0000B21F007015A
:1006B000AC46ACE8C009ACE8C009ACE8C009ACE89D
:1006C000C0098D46704710B50446AFF30080204640
:1006D000BDE81040FFF771BD70B505460C460A2015
:1006E00000E06D1C00F011F835B128780028F8D131
:1006F00002E0641C00F009F814B120780028F8D159
:10070000BDE870400A20AFF3008008B569468DF857
:1007100000000320ABBE08BD00487047B4110020A4
:1007200010B505F013FA002010BD10B502F0E8F97D
:1007300002F0CEF9702000F021F902F0E9FAA820C9
:1007400000F01CF902F0E4FA002000F017F902F0C2
:10075000DFFA002000F012F902F0DAFA02F086FB6C
:100760000A2000F058F902F0B3F9702000F006F901
:1007700002F0CEFABE2000F001F902F0C9FA08201A
:1007800000F0FCF802F0C4FA002000F0F7F802F0E4
:10079000BFFA02F06BFBBDE810400A2000F03BB945
:1007A0002DE9F041002502F0E1FA02F0E7FA082015
:1007B00002F052FB0024114F02F0D0FA00F045F98C
:1007C00000268021384600F093FB00B1012646EA5E
:1007D0004500C5B200224021384600F08EFB00F0F3
:1007E00034F9641CE4B2082CE6D302F0C7FA0820FE
:1007F00002F032FB2846BDE8F0810000000C014009
:100800002DE9F0418AB0002406468DF81C408DF891
:1008100020408DF810408DF80C408DF818408DF870
:1008200014408DF81C40274625460194029400F0A0
:100830008AF8502000F0EFF840F2E45807E0404614
:1008400002F00AFB28466D1CADB2642803D200F00A
:1008500069F80006F3D402F03BF9712000F08EF83D
:1008600002F056FAFFF79CFF8DF81C008DF804008B
:1008700002F0BAFAFFF794FF8DF820008DF805001A
:1008800002F0B2FAFFF78CFF8DF810008DF8060029
:1008900002F0AAFAFFF784FF8DF80C008DF807002C
:1008A00002F0A2FAFFF77CFF8DF818008DF808001F
:1008B00002F09AFAFFF774FF8DF814008DF8090022
:1008C00002F092FAFFF76CFF8DF81C0002F0A8FA14
:1008D00002F0CCFA062101A800F076F89DF81C1071
:1008E00088421CD19DF820009DF81010074341EA72
:1008F00007209DF80C1041EA0020000930609DF8A7
:100900000C009DF8181041EA00209DF8141041EAEF
:100910000020C0F3130070600AB0BDE8F0813460BD
:100920007460F9E710B502F0D3F8712000F026F8F2
:1009300002F0EEF9FFF734FF044602F071FA02F01C
:1009400095FA204610BD10B502F0C2F8702000F0F4
:1009500015F802F0DDF9AC2000F010F802F0D8F93B
:10096000332000F00BF802F0D3F9002000F006F875
:1009700002F0CEF9BDE8104002F078BA70B5054635
:100980008026002402F0F2F900F050F82E4202D046
:1009900002F002FA01E002F013FA02F0DFF900F0CF
:1009A00045F86806641C050EE4B2082CEAD302F090
:1009B000DDF9082002F050FA02F0E0F9BDE87040DD
:1009C000082002F049BAFEE770B50446FF20002275
:1009D00031250FE0A35C58400823060602D585EABE
:1009E000400000E040005B1EC0B213F0FF03F4D1F2
:1009F000521CD2B28A42EDD370BD0000014800F013
:100A0000AFB8000014020020014800F0A9B80000AF
:100A1000D0010020704710B503464FF47A7402E00D
:100A2000204602F019FA5B1EFAD210BD00B5012073
:100A300000F01DF8012000F01AF8012000F017F86E
:100A400001205DF804EB00F012B800B5012000F0C1
:100A50000EF8012000F00BF8012000F008F801204A
:100A600000F005F801205DF804EBAFF30080401EB4
:100A7000FDD2704772B6FEE710B590F82110002243
:100A8000022905D00421816380F82020012010BDB7
:100A900001680B6823F00E030B6001680B6823F0FC
:100AA00001030B6090F84030C46B012101FA03F39D
:100AB000636080F8211080F82020104610BD0000EF
:100AC00010B590F821100024022903D0042181637D
:100AD00001243DE001680A6822F00E020A60016804
:100AE0000A6822F001020A601A4A0168914201D1A3
:100AF000012121E0174A1432914201D110211BE05B
:100B0000144A2832914201D1891515E0114A3C322C
:100B1000914201D189140FE00E4A5032914202D124
:100B20004FF4803108E00B4A6432914202D14FF415
:100B3000801101E04FF08071064A083A51600121AE
:100B400080F82110002180F82010416B01B1884706
:100B5000204610BD0800024090F8210070470000B8
:100B60002DE9F05FC16B0C6801680B68D0F840C0DC
:100B7000042202FA0CF2494DDFF824A1494E4A4FF3
:100B8000DFF828B1DFF828E122422CD05A072AD515
:100B90000A68920603D40A6822F004020A60016817
:100BA000A94201D1042219E0514501D1402215E0AA
:100BB000B14202D14FF4806210E0B94202D14FF449
:100BC00080420BE0594502D14FF4802206E0714586
:100BD00002D14FF4800201E04FF080622F490839C2
:100BE0004A60C16A3BE04FF0020808FA0CF818EAC4
:100BF000040F4FF000094FF0010235D05FEA83780F
:100C000032D50B689B0605D40B6823F00A030B60F2
:100C100080F821200168A94201D1022219E0514542
:100C200001D1202215E0B14202D14FF4007210E050
:100C3000B94202D14FF400520BE0594502D14FF4B2
:100C4000003206E0714502D14FF4001201E04FF08E
:100C50000072124908394A6080F82090816A0029A0
:100C60001AD0BDE8F05F0847082505FA0CF52542C3
:100C700012D01B0710D50B6823F00E030B6090F801
:100C80004010C36B02FA01F15960826380F82120A1
:100C900080F82090016BE2E7BDE8F09F0800024079
:100CA0001C00024030000240440002405800024054
:100CB0006C00024030B528B308C813491422194407
:100CC000B1FBF2F18900C1631049816302214177D0
:100CD0001A6843F6F0718A43D0E900142143D0E941
:100CE00002452C432143046921434469214384691B
:100CF00021431143196000214163012242770177AA
:100D0000084630BD012030BDF8FFFDBF00000240A5
:100D10002DE9F84FDFF8B891002409F1040A0AF12F
:100D2000040B23460F270BF1040EC9E00125A54053
:100D30002A40AA427DD1674ED1F804C0ACEB060828
:100D4000B44532D014DCBCF1030F3AD009DCBCF15D
:100D5000000F2AD0BCF1010F1CD0BCF1020F31D121
:100D60001DE0BCF1110F17D0BCF1120F2AD119E010
:100D7000B8F5881F19D006DCB8F5803F15D0B8F556
:100D8000801F1FD111E0B8F5001F0ED0B8F5041F69
:100D900018D10AE0CB6815E0CB681B1D12E0CB68C8
:100DA00008330FE0CB680C330CE08B682BB1012BC0
:100DB0004FF0080303D0456104E0042302E005611D
:100DC00000E00023FF2A01D8064601E000F10406F6
:100DD0004FEA840501D9A5F12005D6F8008007FA6D
:100DE00005FC28EA0C0803FA05F548EA0508C6F8E8
:100DF00000804D68ED0062D5374DAE6946F00106C2
:100E0000AE61AD6924F0030605F001050095334D90
:100E100006EB050CDCF80850A607360F07FA06F8B3
:100E200025EA0805DFF8B880404503D14FF00008F7
:100E300017E044E0DFF8AC80404502D14FF00108F4
:100E40000FE0DFF8A480404502D14FF0020808E02F
:100E5000DFF89880404502D14FF0030801E04FF0E1
:100E6000040808FA06F848EA0508CCF808804D6836
:100E7000D9F80060ED034D4601D5164300E09643D6
:100E80002E604D68DAF80060AD03554601D5164373
:100E900000E096432E604D68DBF80060ED025D4691
:100EA00001D5164300E096432E604D68DEF80060E1
:100EB000AD02754601D5164300E096432E60641CD2
:100EC0000D682A46E5407FF431AFBDE8F88F000099
:100ED0000004014000001110001002400000014019
:100EE00000080140000C01400010014000140140C6
:100EF0008068084000D0012070470AB10161704746
:100F00000904FBE7014880687047000000000020EA
:100F1000704770472DE9F047026800215368C66AA0
:100F200090F83E4090F83D50102C12D0402C10D03C
:100F3000046C002C7DD05469E443A6077AD4DE43C8
:100F4000B60577D4036C03B19169BDE8F04701F0B1
:100F5000EDBC976951694FF42A0CC9435FEAC17827
:100F60004FF02A4904D066452AD04E4528D010E0DB
:100F7000DE43B6050DD4C16A614501D1012103E00C
:100F8000C16A494501D10821C162BDE8F04701F0BD
:100F900037BC0E0716D4DE43B60513D4416CC9B274
:100FA0001161416B09B1896A29B9816B002907D0A8
:100FB000896A002904D00068416841F400614160F9
:100FC000BDE8F0878E0706D4DE43B60503D4BDE83E
:100FD000F04701F069BBFE43526876074FEA0252C0
:100FE0001DD4002AECDB0A0608D4DA43520505D4E6
:100FF000490705D5BDE8F04701F0FABA4907DFD443
:10100000D9438905DCD4212D05D0402CD8D1BDE8A9
:10101000F04701F03BBCBDE8F04701F0A7BA002A59
:10102000CEDB4A060BD4DA43520508D4490708D56B
:1010300001E00DE00EE0BDE8F04701F023BA4907FA
:10104000BED4D9438905BBD4BDE8F04701F0B0B99F
:10105000916970E7E10606D4D943890503D4BDE858
:10106000F04701F087BC2821212D27D0292D25D03C
:10107000650655D4DD436D0552D4640752D590F80A
:101080003D30448D002C9BD01269446A2270426A24
:10109000521C4262428D521E4285428D002A8FD1DF
:1010A0002A2B8DD10268536823F480635360222277
:1010B000026380F83D1000F06DF981E7250623D426
:1010C000DD436D0520D4640720D590F83D30448D74
:1010D000002CF2D0446A24781461426A521C4262A5
:1010E000428D521E4285428D002AE6D1292BE4D141
:1010F0000268536823F4806353602122026380F8FE
:101100003D1000F048F95BE76107D6D4D943890563
:10111000D3D4418D0029D0D0416A097811610AE009
:101120006107CAD4D9438905C7D4418D0029C4D0E9
:101130001169426A1170416A491C4162418D491E20
:1011400041853DE77047000070B5040025D094F854
:101150003D00002520B984F83C50204600F0BEF840
:10116000242084F83D002068016821F0010101601D
:101170002068016841F4004101602068016821F4A1
:101180000041016000F040FA4D4A6168914201D887
:101190004C4900E04C49884201D2012070BD4B49C6
:1011A0002368B0FBF1F15E6826F03F060E435E60F7
:1011B0006368934206D94FF4967359434FF47A7398
:1011C000B1FBF3F12368491C1E6A26F03F06314348
:1011D00019626168914210D84900401EB0FBF1F2DB
:1011E000521CC2F30B02042A01D2042022E0B0FBFD
:1011F000F1F0401CC0F30B001CE0A268F2B301EB5D
:10120000C10303EB0116431EB3FBF6F35B1C43F46F
:1012100080431B0549D092B301EBC10202EB0111DF
:10122000401EB0FBF1F0401CC0F30B0040F48040C6
:1012300040F400402168CA694CF6FF739A4310439A
:10124000C861D4E9071001432068026822F0C00297
:1012500011430160D4E9030101432068826848F228
:10126000FF339A4311438160D4E9050108432168A3
:10127000CA6822F0FF021043C86001E00EE016E0E9
:101280002068016841F0010101602564202084F894
:101290003D00256384F83E50002070BD01EB4106FF
:1012A000431EB3FBF6F35B1CB3E70120C2E701EB7F
:1012B0004101401EB0FBF1F0401CC0F30B00B7E74A
:1012C000A086010080841E0000093D0040420F00FE
:1012D000704770477047704770470000F0B585B0A1
:1012E0000024064600940194029403940068244963
:1012F000884242D1234DA86940F00800A861A8693E
:10130000694600F008000490C0200090122001906F
:10131000032003901C48FFF7FBFCE86940F4001031
:10132000E861E8691A4D00F4001004901748C5E917
:1013300000048027C5E902472C616C61AC61284636
:10134000EC61FFF7B7FC08B1FFF794FBB5636E6281
:101350000F4D0E484435143801C5102091C50C4876
:1013600045F8104944306C61AC61EC61FFF7A2FCB8
:1013700008B1FFF77FFB75636E6205B0F0BD00003A
:101380000054004000100240000C01408000024068
:10139000D001002070477047074810B5016841F040
:1013A00010010160032000F081F8002000F006F831
:1013B00000F024F8002010BD0020024070B50D4D53
:1013C00004464FF47A712878B1FBF0F00A490968B5
:1013D000B1FBF0F000F0FEFA48B9102C07D2002261
:1013E0002146501E00F042F800206C6070BD0120C4
:1013F00070BD0000000000200C0000200C4808B563
:10140000816941F001018161816901F0010100916F
:10141000C16941F08051C161C06900F08050009005
:101420000448416821F0E06141F00071416008BD6D
:101430000010024000000140002809DB00F01F02FC
:10144000012191404009800000F1E020C0F88012A5
:101450007047002809DB00F01F020121914040097C
:10146000800000F1E020C0F800117047F0B40E4B8E
:101470001B680C46C3F30223C3F10705042D00D9F2
:101480000425191D072901D2002300E0DB1E0126D7
:1014900006FA05F1491E214099409E40761E1640ED
:1014A0003143F0BC01F0F9BE0CED00E0064900F05C
:1014B000070208684FF6FF03184040EA0220034A7B
:1014C00010430860704700000CED00E00000FA05D2
:1014D0002DE9F0470F46050061D0434E306800F01B
:1014E0000700B84209D2306820F007003843306066
:1014F000306800F00700B84251D128683B4C8107A2
:1015000012D5400703D5606840F4E0606060287839
:10151000000703D5606840F4605060606068A968A7
:1015200020F0F000084360602878C00728D0686881
:10153000012810D02168022810D0890700292EDA4E
:10154000616821F0030101436160FFF7DBFC804625
:1015500041F288390DE021688903EFE78901EDE761
:10156000FFF7D0FCA0EB0801494502D90320BDE8F4
:10157000F0876068696800F00C00B0EB810FEFD174
:10158000306800F00700B8420BD9306820F007003F
:1015900038433060306800F00700B84201D00120C5
:1015A000E5E72878400705D56068E96820F4E06041
:1015B000084360602878000706D56068296920F430
:1015C000605040EAC100606000F03EF86168084A7F
:1015D000C1F30311515CC840064908600648006821
:1015E000FFF7ECFE0020C2E700200240001002409E
:1015F000B46000080C0000200400002001480068CE
:10160000704700000C000020044805490068496844
:10161000044AC1F30221515CC84070470C0000200D
:1016200000100240C4600008044805490068496889
:10163000044AC1F3C221515CC84070470C0000202D
:1016400000100240C460000812A185B00FC98DE8E7
:101650000F0014A0144A006804905168134801F068
:101660000C03042B10D0082B0ED1C1F38343C90304
:101670001DF803000AD5516804AAC1F34041515C2A
:101680000A4A5043B0FBF1F005B07047084948439F
:10169000FAE7000002030405060708090A0B0C0D0F
:1016A0000E0F1010010200000010024000127A001C
:1016B00000093D002DE9F84F040070D02078C04D9E
:1016C000C00749D06868C0F38100012807D0686866
:1016D000C0F38100022809D16868C00306D52868D4
:1016E000800339D560680028E7D035E06068B0F540
:1016F000803F0BD010B1B0F5A02F11D0286820F496
:1017000080302860286820F4802002E0286840F4B7
:1017100080302860606890B1FFF7F4FB06460AE06D
:10172000286840F480202860F0E700BFFFF7EAFB5C
:10173000801B642873D828688003F7D50CE0FFF776
:10174000E1FB064605E000BFFFF7DCFB801B6428D9
:10175000F0D828688003F7D420789A4E80074FF09D
:1017600001094FF0000839D5686810F00C0F07D058
:101770006868C0F38100022809D16868C00306D4F4
:101780002868800714D52069012808D110E0206955
:10179000B0B1C6F80090FFF7B5FB074605E00AE1D7
:1017A000FFF7B0FBC01B0228C4D828688007F7D514
:1017B0002868616920F0F80040EAC10028600DE067
:1017C000C6F80080FFF79EFB074604E0FFF79AFB90
:1017D000C01B022823D828688007F7D42078000788
:1017E0002CD57948A169D9B1C0F80090FFF78AFBE0
:1017F000074604E0FFF786FBC01B02280FD8686A83
:101800008007F7D571484FF4FA510068B0FBF1F04A
:10181000009000BF0098411E0091FAD20EE080E0D7
:10182000C0F80080FFF76EFB074604E0FFF76AFB95
:10183000C01B022875D8686A8007F7D42078400753
:1018400060D5E8690027C00008D4E86940F08050FE
:10185000E861E869012700F0805000905C48016869
:10186000C90513D40168834641F480710160FFF714
:1018700049FB824606E000BFFFF744FBA0EB0A00ED
:1018800064284ED8DBF80000C005F5D5E0680128D3
:101890000AD008B1052813D0286A20F00100286278
:1018A000286A20F0040002E0286A40F00100286263
:1018B000E06841F2883B98B1FFF724FB82460BE0D9
:1018C000286A40F004002862EEE700BFFFF71AFB29
:1018D000A0EB0A0159455AD8286A8007F6D50CE0D2
:1018E000FFF710FB824605E0FFF70CFBA0EB0A01B7
:1018F00059454CD8286A8007F6D41FB1E86920F012
:101900008050E861E06988B36968C1F38101022908
:1019100044D00228C6F8608004D0FFF7F3FA0446EA
:1019200038E034E0FFF7EEFA074604E0FFF7EAFAA2
:10193000C01B02282BD828688001F7D4206AB0F594
:10194000803F05D16868A16820F4003008436860D2
:10195000D4E908010843696821F4741108436860F8
:10196000C6F86090FFF7CEFA044606E025E000BF17
:10197000FFF7C8FA001B022809D828688001F7D5AC
:101980001BE000BFFFF7BEFA001B022802D90320AC
:10199000BDE8F88F28688001F4D40EE00128F7D064
:1019A0006868226A00F48031914204D1616A00F4CF
:1019B0007010884201D00120EAE70020E8E700002B
:1019C0000010024000004242800442420C0000200D
:1019D0000070004010B5401EB0F1807F01D301209F
:1019E00010BD4FF0E02460610F21601701F055FC3D
:1019F0000020A06107202061002010BD70477047C3
:101A000070B590F83C20012A26D0012480F83C4093
:101A1000022280F83D2003685A689D6822F0700613
:101A20000A6832435A600D4B02689A4208D0B2F1FC
:101A3000804F05D00A4B9A4202D00A4B9A4204D1F9
:101A4000496825F080031943916080F83D400021EA
:101A500080F83C10084670BD022070BD002C01408B
:101A6000000400400008004010B5040003D094F8C2
:101A70003D0010B107E0012010BD002084F83C00BB
:101A8000204600F01FF8022084F83D00211D206848
:101A900001F072FA012084F8460084F83E0084F8D0
:101AA0003F0084F8400084F8410084F8420084F844
:101AB000430084F8440084F8450084F83D00002089
:101AC00010BD000008B500680649884208D10648E4
:101AD000C16941F00201C161C06900F002000090DB
:101AE00008BD0000000400400010024070B504462C
:101AF00090F83C00012817D0012584F83C500220C2
:101B000084F83D002068826822F0770222F47F4248
:101B100082600868502830D00DDC20284DD005DCCC
:101B200098B310283BD148E0022070BD302844D043
:101B3000402834D139E0602828D0702806D0B0F58C
:101B4000805F2CD0B0F5005F29D10AE0CB68D1E9E5
:101B50000121206801F046FA2068816841F0770190
:101B600009E0CB68D1E90121206801F03BFA206847
:101B7000816841F48041816011E0CA684968206849
:101B800001F042FA5021206807E016E0CA6849686F
:101B9000206801F04AFA6021206801F02DFA84F8EB
:101BA0003D50002084F83C0070BDCA684968206838
:101BB00001F02AFA40212068EFE72268014610462A
:101BC000EBE7704770B50446006801694FF0000507
:101BD000C943890715D4C168C943890711D4E91ECF
:101BE000016101202077206880698007204602D0AB
:101BF000FFF7E7FF04E000F098F8204600F096F8C1
:101C0000257720680169C943490717D4C168C943CA
:101C1000490713D46FF00401016102202077206886
:101C2000806910F4407F204602D0FFF7CAFF04E02D
:101C300000F07BF8204600F079F8257720680169EC
:101C4000C943090716D4C168C943090712D46FF004
:101C500008010161042020772068C06980072046C0
:101C600002D0FFF7AEFF04E000F05FF8204600F07E
:101C70005DF8257720680169C943C90617D4C16892
:101C8000C943C90613D46FF0100101610820207701
:101C90002068C06910F4407F204602D0FFF791FF12
:101CA00004E000F042F8204600F040F82577206874
:101CB0000169C943C90708D1C168C943C90704D12B
:101CC000891E0161204600F032F820680169C9438D
:101CD000090609D4C168C943090605D46FF080011B
:101CE00001612046FFF78AFE20680169C943490661
:101CF00009D4C168C943490605D46FF040010161A8
:101D0000204600F016F820680169C94389060BD403
:101D1000C168C943890607D46FF0200101612046DC
:101D2000BDE87040FFF76BBE70BD7047704702F0B2
:101D30007BBF704770477047F8B50268044610686B
:101D4000D168536910F00F0F4FF0000553D003F026
:101D5000010601F4907737435FD0C20705D0CA056A
:101D600003D5226C42F001022264420705D5DA074E
:101D700003D0226C42F002022264820705D5DA0702
:101D800003D0226C42F004022264020707D501F05E
:101D90002002324303D0226C42F008022264226CFB
:101DA000002A34D0800604D5880602D5204601F0EA
:101DB0006EF920684069216CC0F38010090700D4D7
:101DC00030B3204601F04BF92068416949061BD524
:101DD000416921F040014161A06BA8B158494163BC
:101DE000A06BFEF76DFE002811D0A06B416B01B017
:101DF000BDE8F040084783060FD58B060DD5204679
:101E0000BDE8F84001F043B92046FFF794FFF8BD64
:101E10002046FFF790FF2564F8BD266B2023012E96
:101E200052D1C60650D5CE064ED5106850680090E7
:101E3000506940062AD5A16B086840680004000C70
:101E4000EAD0A68D8642E7D9E0858869202818D097
:101E5000D06820F48070D0602068416921F00101D1
:101E600041612068416921F04001416184F83E30C0
:101E700025632068C16821F01001C160A06BFEF7E6
:101E8000FBFDA08DE18D401A81B219E0A08DE18D9E
:101E9000401A81B2E08D0028BED00029BCD0D068A5
:101EA00020F49070D0602068426922F00102426103
:101EB00084F83E3025632068C26822F01002C260B8
:101EC0002046FFF737FFF8BD05062BD50D0629D5AF
:101ED00094F83D002128F6D1A068B0F5805F01D1CB
:101EE0002069B0B1206A411C2162216800784860F5
:101EF000E08C401E0004000CE084E4D12068C1683E
:101F000021F08001C1602068C16841F04001C160DA
:101F1000F8BD206A0088C0F308005060206A801C69
:101F20002062E5E74006F3D54806F1D5D1682046A2
:101F300021F04001D16084F83D3000F028F9F8BD6F
:101F40004F30000870B5040004D094F83D0000251F
:101F500010B106E0012070BD84F83C50204600F02E
:101F600023F8242084F83D002068C16821F4005142
:101F7000C160204601F0E6F82068016921F4904133
:101F800001612068416921F02A0141612068C1682E
:101F900041F40051C1602564202084F83D0084F89C
:101FA0003E00002070BD000030B585B000240094D4
:101FB00001940294039400681449884224D114487F
:101FC000816941F480418161816901F4804104911A
:101FD000816941F00401816180690E4D00F00400C7
:101FE00004904FF4007000900220019003200390B1
:101FF00069462846FEF78CFE2815CDE9000469469F
:1020000028460294FEF784FE05B030BD003801403A
:1020100000100240000801402DE9F84F044690F8F6
:102020003E009A4616460D46202853D1FDB1F6B122
:1020300094F83C0001284DD0012084F83C00002792
:102040002764222084F83E002763FEF75BFFA68505
:102050008146E685A0684FF48058404501D120694B
:1020600040B12E465FF0000584F83C7027E0012067
:10207000BDE8F88F0026F7E74B46002220212046D6
:10208000CDF800A001F0BAF808B10320F0E726B1BE
:10209000A06840451BD038B108E020684068C0F314
:1020A000080025F8020B07E0206980B1206840682D
:1020B00000F07F0006F8010BE08D401EE085E08D0A
:1020C0000028D9D1202084F83E000020D0E72068E5
:1020D0004068EFE70220CBE7704700002DE9F843A6
:1020E000044690F83D001F4616460D4620284CD168
:1020F000C5B1BEB194F83C00012846D0012084F857
:102100003C004FF00008C4F84080212084F83D00D6
:10211000FEF7F8FEA6848146E684A068B0F5805FED
:1021200003D004E00120BDE8F883206928B12E46E1
:102130005FF0000584F83C800EE00026FAE780217D
:10214000204601F05BF8A0B9AEB116F8010B21688A
:102150004860E08C401EE084E08C4B464FF000026B
:1021600000970028EBD14FF04001204601F046F8DF
:1021700030B10320D7E735F8020BC0F30800E6E7DB
:10218000202084F83D000020CDE70220CBE77047F7
:102190000148FEF7BFBE00007C01002038B5406A50
:1021A000002190F83D202B4B46F2A8141B68B3FB8E
:1021B000F4F3C3EBC30303EB830300933BB15B1E58
:1021C000009303681B689B0505D5009BF6E7036C2D
:1021D00043F020030364436B03B19962836B03B143
:1021E000996203681C6824F480641C604185436B19
:1021F00003B15963836B03B1596303681C6824F00E
:1022000001041C6090F83D402023602C0BD0282452
:1022100034EA02020FD080F83D3080F83E1000BF53
:10222000FEF790FF38BD80F83D3080F83E10016425
:10223000FEF76EFE38BD0268136843F001031360B9
:102240000268136843F480631360016380F83D40C3
:10225000E6E700000C00002070B5044690F83D0051
:1022600094F83E10102901D0402906D1222804D12B
:1022700021680A6822F400620A60282131EA00021B
:102280004FF000054FF0200626D021684968090567
:1022900005D4602803D084F83D6084F83E5025635F
:1022A00020684168090537D5416821F40061416023
:1022B000606B3D4990F82120012A11D04163606B89
:1022C000FEF7FEFB38B32068016821F001010160D0
:1022D00084F83D60606B1CE0256384F83D10DFE707
:1022E000A06B4163A06BFEF7EBFBA0B120684169D6
:1022F000C943490605D40069616A0870606A401CD8
:1023000060622068016821F00101016084F83D608D
:10231000A06B416B884710E094F83D10602910D005
:102320004169C943490605D40069616A0870606A59
:10233000401C60622046FEF705FF206CC1071CD1DF
:1023400015E084F83D6025644169C943490605D418
:102350000069616A0870606A401C606220680168F8
:1023600021F0010101602046FEF7D2FDE5E781077B
:1023700003D4410701D4000704D52068416821F443
:10238000E061416094F83D00216C49070BD5282895
:1023900009D10648E062256384F83D6084F83E5028
:1023A0002046FEF795FF70BD9D2100080000FFFF4D
:1023B00010B5C26A438D0168042B06D0438D032BF0
:1023C00008D0438D022B1DD012E04A6822F48062AF
:1023D0004A600CE04B6823F480634B60042A06D00B
:1023E000022A04D001680A6822F480620A60016847
:1023F0000969426A1170416A491C4162418D491E56
:10240000418510BD012A30D0102A2ED0042A30D0A8
:10241000022A2ED00A6842F400720A600168096933
:10242000426A1170416A491C4162428D521E4285C6
:10243000026812690A70416A491C4162418D491E55
:10244000418501684A6822F440724A60202180F880
:102450003D1090F83E200021402A80F83E100CD01C
:1024600012210163FEF735FF10BD0A6822F4806275
:10247000D3E70A6842F48062CFE70163FEF72BFFDF
:1024800010BD000038B590F83D10222914D1418DBF
:10249000032912D901680969426A1170416A491C0D
:1024A0004162418D491E4185418D032904D1006857
:1024B000416821F48061416038BDC26A022AFBD0C4
:1024C000012901D00029F7D1274946F2A81300229B
:1024D0000968B1FBF3F101EB810100910168202350
:1024E000009C641E009422D00C68A405F8D40C68EB
:1024F00024F480640C6001684C6824F4E0644C604F
:1025000001680969446A2170416A491C4162418D30
:10251000491E418580F83D3090F83E1080F83E20FD
:1025200040291DD012210163FEF7D3FE38BD046C93
:1025300044F0200404644C6824F4E0644C600168B6
:102540000969446A2170416A491C4162418D491EF2
:10255000418580F83D3080F83E20FEF7F3FD38BD20
:102560000263FEF7B8FE38BD0C00002010B5C26A49
:1025700090F83D1021290BD1418D51B1416A02687B
:1025800009781161416A491C4162418D491E4185AA
:1025900010BD20230021082A13D0202A11D012F5C3
:1025A000803F0ED00268546824F4E0645460112225
:1025B000026380F83E1080F83D3000BFFEF78AFECF
:1025C00010BD0268546824F4E06454600268146822
:1025D00044F400741460016380F83D3090F83E20AC
:1025E00080F83E10402AE9D1FEF776FE10BD0000CB
:1025F00010B590F83D1090F83E30C26A048DB4B129
:10260000212903D0402B11D122290FD1418DE1B3D3
:1026100090F83E10402942D0416A02680978116161
:10262000416A491C4162418D491E418510BD2129E5
:10263000E8D120230021082A13D0202A11D012F536
:10264000803F0ED00268546824F4E0645460112284
:10265000026380F83E1080F83D3000BFFEF73AFE7E
:1026600010BD0268546824F4E06454600268146881
:1026700044F400741460016380F83D3090F83E200B
:1026800080F83E10402AE9D100E002E0FEF724FE87
:1026900010BD0068416821F48061416010BDBDE853
:1026A000104000F0F3B8000078B590F83E50C26AD0
:1026B000046B90F83D6000230168222E73D1066DF3
:1026C0000EB9402D6FD0056D1DB90569B5F5404FA8
:1026D0001BD0458D95B3468D484D012E20D0448D9D
:1026E000022C4DD00C6844F480640C6001684C6886
:1026F000240579D5AA4273D0012A71D0082A6FD057
:10270000102A6DD0202A6BD06EE04A698A69009247
:102710000A6842F480720A60016D491C016578BD47
:10272000AA4214D10A6822F480620A6001684A68E9
:10273000120504D50A6822F4806217E0FFE74A69AF
:102740008A6900920A6842F400720A6050E0082A1E
:1027500010D0202A0ED0122C0AD0042A03D0022A2C
:1027600001D0102AE6D10A6842F480620A603BE098
:10277000012ADFD00A6822F480620A600168DEE77D
:10278000042A11D0022A0FD0102A0DD00C6844F46C
:1027900000640C6001684C698C6900940C6824F436
:1027A00080640C6008E025E00C6844F480640C60F0
:1027B00001684C698969009101684C68240517D546
:1027C000AA4207D0012A05D0082A03D0102A01D036
:1027D000202A0DD14A6842F480524A6008E0FFE79F
:1027E0004A6842F480524A6001684A6989690091E6
:1027F000036578BD48698869009078BD0000FFFFD7
:1028000090F83E10402910D00169B1F5804F19D0E1
:10281000016DA9B3016D012910D1416C5FF0F10286
:1028200001F4407142EAD11106E0016D0029416CCA
:1028300005D0C9B241F0010100680161704701F0A3
:10284000FE01F9E790F83D102129416C09D0C9B289
:1028500041F0010102681161416B29B1896A49B9EE
:1028600002E001F0FE01F5E7816B0029E6D0896AFC
:102870000029E3D00068416841F40061416070477D
:10288000FFE7416CF02201F44071CBE710B590F8FE
:102890003D10026D22B3026D012A2FD0026D022A73
:1028A0001DD122292FD0428D0AB1212933D0428D4A
:1028B000002A14D1212912D101684A6822F4E06269
:1028C0004A6001680A6842F400720A6000210163EC
:1028D000202280F83D2080F83E10FEF7FDFC10BD60
:1028E000C16C0129816C02D0C1F3072108E00268A4
:1028F000C9B21161016D891C016510BD816CC9B23D
:102900000268116104E001680A6842F480720A609A
:10291000016D491CF0E7416A026809781161416A5A
:10292000491C4162418D491E418510BD38B50C4698
:1029300090F83D2000212825954302680B4605D0DC
:1029400051699169009180F83C3038BD556825F493
:1029500080655560E243540700D50121120601D578
:10296000828900E0028B80F83C3092B2FEF7D1FA07
:1029700038BD0000F8B590F83D6004460068416835
:1029800021F4E061416020680025416900910168FF
:1029900041F0010101602068016821F4806101605B
:1029A00020684168090520D5474F222E48D02A2E9D
:1029B00046D0616B096849686185618D19B1216CE8
:1029C00041F004012164416821F400614160606BC1
:1029D000FEF7C2F8012808D0606B4763606BFEF712
:1029E0006FF810B1606B416B8847608D08B3206849
:1029F0004169C943490708D40069616A0870606A7F
:102A0000401C6062608D401E608520684169C9433A
:102A1000490608D40069616A0870606A401C6062F7
:102A2000608D401E6085608D18B1206C40F0040000
:102A30002064206C00B32046BDE8F840FFF70CBCD2
:102A4000A16B096849686185618D19B1216C41F0FC
:102A500004012164416821F400614160A06BFEF72C
:102A60007BF80128C1D0A06B4763A06BFEF728F864
:102A70000028BAD0A06BB6E72A2E06D125632820FD
:102A800084F83D002046FEF785FC94F83D10202098
:102A900028290DD0216B222901D0222E07D12563B0
:102AA00084F83D0084F83E502046FEF773FCF8BDE4
:102AB0000649E162256384F83D0084F83E502046D3
:102AC000FEF706FCF8BD00009D2100080000FFFF96
:102AD00010B500F061F9082000F0BEF900F03EF9F1
:102AE000082000F0B9F900F06BF9082000F0B4F903
:102AF00000F03CF9BDE81040082000F0ADB900003E
:102B00002DE9FF4101248020CDE900040D4E03256D
:102B1000694603953046FEF7FBF80122D703394694
:102B20003046FEF7EAF94020CDE9000469460395F6
:102B30003046FEF7EDF8012239463046FEF7DDF962
:102B4000BDE8FF81000C01400D4808B5416941F026
:102B5000010141614069002200F00100009011462E
:102B60001020FEF783FC1020FEF773FC00221146B4
:102B70001120FEF77BFCBDE808401120FEF769BC80
:102B80000010024070B586B00024184800940194EB
:102B900002940394816941F020018161816901F00F
:102BA00020010491816941F008018161816901F08E
:102BB00008010491816941F00401816180690C4E32
:102BC00000F004004FF400450490002229463046EE
:102BD000FEF793F901200095CDE90104022003904E
:102BE00069463046FEF794F806B070BD001002400A
:102BF000000C01400D4810B50B4901600C494160C3
:102C000000214FF480428160C0E90312416181617B
:102C1000C1610162FEF798FA002803D0BDE81040B8
:102C2000FDF728BF10BD0000005400407C010020CB
:102C3000A08601001FB509481423032280218DE8D6
:102C40000F000023064A07A1783802F033FC04B0D5
:102C50000248BDE81040783802F090BC5C030020C8
:102C6000B94100086C6564310000000010B586B001
:102C70000024174800940194029403940494134987
:102C80000594016040F60F61C0E901142321C0E9F9
:102C900003148461FEF7E8FE08B1FDF7EBFE4FF484
:102CA0008050009069460A48FEF720FF08B1FDF702
:102CB000E1FE049404A906480594FEF7A1FE00284D
:102CC00001D0FDF7D7FE06B010BD000000040040A3
:102CD000580200200C4810B50A4901604FF4E13158
:102CE0004160002181600C22C160C0E90412816151
:102CF000C161FFF727F9002803D0BDE81040FDF7B8
:102D0000B9BE10BD00380140A0020020FEE7FEE77A
:102D100070B5002400F02AF800F030F8082000F028
:102D20009BF800F01BF8082000F096F80A4D01E02F
:102D3000641CA4B280212846FEF7DAF808B1642C9E
:102D4000F6D3642C06D000F011F8082000F084F8C7
:102D5000012070BD002070BD000C01400122402107
:102D60000148FEF7CAB80000000C014000224021D3
:102D70000148FEF7C2B80000000C01401FB500205A
:102D80000190802000900320039069460148FDF7E0
:102D9000BFFF1FBD000C01401FB501200190802026
:102DA00000900320054C039069462046FDF7B0FFD4
:102DB000012280212046FEF7A0F81FBD000C014033
:102DC0001FB501200190802000900320054C039046
:102DD00069462046FDF79CFF002280212046FEF731
:102DE0008CF81FBD000C014010B5FFF7BFFF082095
:102DF00000F032F8FFF7E4FF082000F02DF8FFF7AD
:102E0000ADFF082000F028F8FFF7B0FF082000F021
:102E100023F8FFF7B3FFBDE81040082000F01CB80E
:102E200010B5FFF7A3FF082000F016F8FFF7B4FF76
:102E3000082000F011F8FFF791FF082000F00CF8CF
:102E4000FFF794FF082000F007F8FFF7B9FFBDE88F
:102E500010400820AFF3008000B5801E020004D0AF
:102E60000120FDF704FE521EFAD100BD10B5FFF798
:102E7000A7FF0820FFF7F0FFFFF770FF0820FFF71C
:102E8000EBFFFFF789FFBDE810400820FFF7E4BF24
:102E900010B502F0A5F802F009FCBDE8104002F000
:102EA000ADB830B58FB028216846FDF765FB142119
:102EB0000AA8FDF761FB01210804CDE900100024F8
:102EC000029402250491CDE907504FF4E0100990D7
:102ED0006846FEF7EFFB08B172B6FEE70F20CDE9BA
:102EE0000A054FF48060CDE90C4002210AA80E9437
:102EF000FEF7EEFA002801D072B6FEE70FB030BD43
:102F0000144910B54868144A10F00C03134803D054
:102F1000042B01D0082B09D002604968104AC1F384
:102F20000311515C0268CA40026010BD4A684B68D8
:102F300002F470124FF0020413F4803F04EB92424B
:102F400002D04B689B0301D5064B00E0024B5A436D
:102F5000E2E700000010024000127A000C0000209E
:102F6000B460000800093D00704700000148FEF70A
:102F700029BE000058020020F0B50268164B174C1D
:102F8000174D4FF08047984205D0B84203D0A04279
:102F900001D0A84203D122F070064A683243984219
:102FA00005D0B84203D0A04201D0A84203D122F4F8
:102FB0004074CA6822434C6922F0800222430260B6
:102FC0008A68C2620A688262984201D10969016313
:102FD00001214161F0BD0000002C014000040040CF
:102FE0000008004010B5846842EA032224F47F44BC
:102FF0000A432243826010BD826822F070020A43B5
:1030000042F007018160704710B5036A046A24F03A
:1030100001040462846924F0F00444EA021423F0F9
:103020000A020A438461026210BD10B5036A23F0EC
:10303000100303628369046A23F4704343EA023293
:1030400024F0A00343EA01118261016210BD10B5B2
:10305000406A0021C185C184FEF76DFE10BD016884
:10306000CA6822F49072CA6001684A6922F00102BB
:103070004A61016B012904D10168CA6822F010027B
:10308000CA60202180F83E1000210163704708B516
:1030900090F83E10222901D0022008BD82684FF42A
:1030A00080539A4201D1016921B1816A9A421BD0B1
:1030B0004AB10AE00268816A5268C2F308020A80D3
:1030C000816A891C08E0026972B10268526802F0E4
:1030D0007F020A70816A491C8162C18D491E090400
:1030E000090CC18503D019E002685268F1E7016854
:1030F000CA6822F02002CA600168CA6822F480729D
:10310000CA6001684A6922F001024A61202180F800
:103110003E10016B012903D0FEF7DEFF002008BD41
:10312000002101630168CA6822F01002CA600168C8
:103130000A68D20602D50A6849680091818DFEF7B7
:10314000F9FDEBE770B5044600680169E26821F417
:103150004051114301612169A06808436169084336
:103160002168CA6841F20C639A430243CA6020682E
:103170004169A26921F44071114341611E492068EF
:10318000884202D1FEF750FA01E0FEF73DFA00EB6B
:10319000C00101EB0012606864218000B2FBF0F313
:1031A000B3FBF1F36FF018067343B2FBF0F5B2FB1B
:1031B000F0F605EB8305322303EB0515B5FBF1F5BE
:1031C000B6FBF1F605F0F00505EB0615B2FBF0F6DF
:1031D000B2FBF0F0B0FBF1F06FF01802504306EBD9
:1031E000800003EB0010B0FBF1F0216800F00F004D
:1031F0002844886070BD0000003801402DE9F0418E
:10320000984617460E460446069D1DE0681C1BD0D6
:103210002DB1FDF777FEA0EB0800A84214D9206875
:10322000C16821F4D071C1602068416921F00101B9
:103230004161202084F83D0084F83E00002084F89D
:103240003C000320BDE8F0812068006836EA0000F9
:1032500004D00020B842D9D00020F3E70120F9E7DC
:1032600010B50C48FEF768FD0A4C2068C06880065F
:1032700001D501F0DFFC2068C068000601D501F02F
:10328000DFFC2520FEF7D8F8BDE810400148FEF726
:1032900053BD0000A0020020FEE70907090E002828
:1032A00004DB00F1E02080F80014704700F00F000C
:1032B00000F1E02080F8141D70470000002806D0BF
:1032C0000E4910F0FF0F03D0C0B2085C401C7047DD
:1032D00010F47F4F04D0C0F30720085C093070471A
:1032E00010F47F0F04D0C0F30740085C1130704722
:1032F00001EB10600078193070470000CC600008C6
:103300002DE9F04F89B092468B460646002400E036
:10331000641C305D202803D0092801D05C45F7D318
:103320004FF0FF387CB3194804F10609184F0568BF
:1033300011E0062217A12868FDF72EF850B9286879
:1033400022463146801DFDF727F818B9296811F883
:10335000090020B10C3538688542EAD314E0AC6826
:103360008CB120216846FDF707F96A465946304678
:1033700001F028FB38B16946A047CAF800000020D8
:1033800009B0BDE8F08FFFE74046F9E7780000207C
:103390007C0000205F5F636D645F00002DE9FC41ED
:1033A0001F460446DDE90831DDE90A651430406056
:1033B0000060C4E90827C4E90A310A4623211846F7
:1033C0001C3401F07DFED4E903014218D4E9010167
:1033D000104B121F01F0E8FD44F81A0B002004F80E
:1033E00001690D4A04F8036BE4E8020544F810593A
:1033F00001C404F83C0B01C444F87409009023464E
:103400000190194604F1440002F0E4F90020BDE8FF
:10341000FC8100001D540008EB550008143001F039
:103420002BBE70B50546FCF7EFFE296F044609B1C7
:10343000284688472046BDE87040FCF7E9BE0000FA
:1034400010B51BA001F0E8FD1C4C21781CA001F078
:10345000E3FD2078C00702D01FA001F0DDFD207839
:10346000800702D51FA001F0D7FD2078400702D5C4
:103470001FA001F0D1FD2078000702D520A001F0A7
:10348000CBFD2078C00602D520A001F0C5FD207834
:10349000000607D509480F300168BDE810401DA09F
:1034A00001F0BABDBDE810401EA001F0B5BD00009E
:1034B000627573206661756C743A0A0029ED00E04C
:1034C0005343425F434653525F424653523A307829
:1034D00025303258200000004942555345525220B1
:1034E000000000005052454349534552522000000D
:1034F000494D505245434953455252200000000067
:10350000554E53544B4552522000000053544B45E6
:10351000525220005343422D3E424641523A2530FA
:1035200038580A000A00000010B500F075FF0020AE
:1035300010BD000070B5084600241546012181F336
:1035400010880A4A0A21D1700722294602F01EFD7E
:10355000012805D144F6206002F028FD012800D0A2
:103560000324002080F31088204670BD90000020C6
:103570002DE9F0410746002516468846012080F3D4
:1035800010880F4CA088FF2801D9FCF7B7FEA0884F
:10359000032804D3A188A06801F03AFB30B10525C7
:1035A000002080F310882846BDE8F081A06810F85C
:1035B000011B3970A188891E3180C8F80000EFE72F
:1035C0009000002070B503460025012080F310888C
:1035D000104C607828B10525002080F3108828461B
:1035E00070BD491E0126E1600846E6800B70E18847
:1035F0001144E180E18801F00BFB0146E088A268FC
:103600000244401CE080117026700121002002F06D
:103610005FFBE1E79000002010B5012080F31088E7
:10362000002102F055FB04490020487080F3108807
:10363000BDE8104002F094BC9000002010B50120BD
:1036400080F310880021084602F042FB02F058FB8C
:10365000002080F3108810BD70B5064D0024287836
:10366000012802D00624204670BD2869804700202A
:103670002870F8E7B000002070B50C4609880025D6
:1036800005292FD1417840F2CF760A028178114383
:10369000C278491C1302027989B21A43531EB342FD
:1036A00020D200232380012300F8013B2688761CCA
:1036B0002680560703D003EBD203DEB201E0C2F34B
:1036C000C70600F8016B23885B1C2380002300F0F1
:1036D00005FB18B101F082FA054604E02088304469
:1036E000208000E00325284670BD70B50C4609888F
:1036F000002505292FD1417840F2CF760A02817842
:103700001143C278491C1302027989B21A43531E2D
:10371000B34220D200232380022300F8013B2388F8
:103720005B1C2380530704D0012303EBD203DEB2DA
:1037300001E0C2F3C70600F8016B23885B1C2380FD
:1037400000F0CEFA18B101F049FA054604E02088ED
:103750003044208000E00325284670BD70B50C463B
:1037600009880026052925D1417805790A02817842
:103770001143491C6A1E89B27C2A1BD80022228070
:10378000032200F8012B22880023521C22806A00A9
:1037900000F8012B2288521C22802A4600F0A2FA4F
:1037A00018B101F01BFA064605E0208800EB450041
:1037B000208000E00326304670BD70B50C460988B5
:1037C0000026052927D1417805790A02817811431D
:1037D000C278491C45EA02256A1E89B27C2A1AD29F
:1037E00000222280042200F8012B2288521C228011
:1037F0006A0000F8012B2288521C22802A4600F021
:1038000073FA18B101F0EAF9064605E0208800EBEA
:103810004500208000E00326304670BD2DE9F041D0
:103820000446088800270D460A2842D36078267986
:103830000102A078227A0843401C1FFA80F8E07841
:1038400046EA00266079731E0102A0790843401CF5
:1038500081B2E0797C2B42EA0022607A28D83AB320
:10386000792A25D8B0EB420F22D1012304F10A00B6
:1038700000F038FA98B90021298017212170298891
:10388000601C491C2980710000F8011B2988002355
:10389000491C29803246414600F024FA18B101F053
:1038A0009DF9074605E0288800EB4600288000E0E7
:1038B00003273846BDE8F08170B5064C0D46064931
:1038C0002288401CFCF7BFFD2088401C2880002077
:1038D00070BD0000A00000208810002038B50988C5
:1038E000002405290BD141780A0281781143491C33
:1038F000027989B21AB9C278FF2A03D012B103241F
:10390000204638BD00228DF80120C078FF280CD059
:103910008DF8002001231A46684600F0DFF90028E0
:10392000EED001F05BF90446EAE701208DF80000D3
:10393000F0E710B509880024052902D003242046A9
:1039400010BD417801230A028178C01C1143491C33
:1039500089B21A4600F0C6F90028F0D001F03EF90D
:103960000446ECE72DE9F0410D46098800240529BD
:1039700026D9417843790A0281781143491C8EB2D5
:10398000C178027942EA0122510704D0012101EBFA
:10399000D201C9B201E0C2F3C701571EB7F5F66FF5
:1039A0000ED299420CD101233146801D00F096F9C8
:1039B00018B101F013F9044603E00520288000E067
:1039C00003242046BDE8F08170B50D460988002427
:1039D00006291DD341780A0281781143C278491C17
:1039E0001302027989B21A434379561E772E0FD8F3
:1039F0005606360E9E420BD10123801D00F072F94F
:103A000018B101F0EBF8044603E00520288000E03F
:103A10000324204670BD00002DE9F0411D46069BA1
:103A20001746064641B1F72906D81E4C08462171B3
:103A300000211EB1012E15D002252EE01A4A226166
:103A40001A4A62611A4AE2601A4AC4E906211A490E
:103A500021621A4961621A49A1622A46394600F078
:103A600099F812E0174A2261174A6261174AE26028
:103A7000174AC4E9062117492162174961621749AB
:103A8000A1622A463946FFF755FD050005D102F02F
:103A90005FFA28B16671012020702846BDE8F081E8
:103AA0000325FAE7B00000209D3C0008C13C000857
:103AB000393C0008DD3B0008B15F00085960000890
:103AC00019600008193600083D360008C5350008A1
:103AD00071350008755D0008895E0008595E0008B0
:103AE00038B52B4C207808B1062038BD684602F066
:103AF00021FA01284AD19DF80000E8B3012802D03C
:103B0000022843D10FE0224AA369921D911CC81FCD
:103B1000984788BB60782179884200D060BB02203A
:103B200002F01EFA32E0A0680121194B0278A2705F
:103B3000E170002113F12C0313F8315065B1954267
:103B400007D103EBC1014A681149891D9047E07014
:103B500002E0491C1029EFDB607868B1E07880B1A1
:103B60000021E180A17841F08002A1680A70E2881A
:103B7000521C92B2E28000E008E08854E088401CC9
:103B8000E080D4E90213E28820799847002038BD0C
:103B9000B000002070B5084600241546012181F3CD
:103BA00010880822294602F0F1F901280DD1B5F557
:103BB000964F01D9232003E007496800B1FBF0F0DC
:103BC00080B202F0F3F9012800D00324002080F332
:103BD0001088204670BD0000A07F17002DE9F0413D
:103BE0000746002516468846012080F31088104CB1
:103BF000A088FF2801D9FCF781FBA088042804D302
:103C0000A1880C4801F0E6FF30B10525002080F3C3
:103C100010882846BDE8F081064800783870A088F2
:103C2000C01E30800348401CC8F80000EEE70000CA
:103C3000A4000020A810002070B503460025012034
:103C400080F31088134C6078012805D005250020EA
:103C500080F31088284670BD491E0126A1600846E1
:103C600066800B70618811446180618801F0B2FF49
:103C70006188094A5318491C61801870010A6088DC
:103C80000244401C6080117026700121002002F067
:103C90001FF8DCE7A4000020A810002010B50120C8
:103CA00080F310880548002444702146012002F06A
:103CB0000FF802F043F884F3108810BDA400002030
:103CC00010B5012080F310880021084602F000F8AA
:103CD00002F016F8002080F3108810BD0120704714
:103CE00001207047012070472DE9F0410446154638
:103CF0000F4600262648FCF783FD25494FF47A72CB
:103D000008685043020DA1F11400426049684FF465
:103D1000FA6251431F4A02EB1151C16042680A2105
:103D200092FBF1F2436893FBF1F393FBF1FC01FB8F
:103D30001C331A448260C268C36892FBF1F293FBA1
:103D4000F1F393FBF1FC01FB1C31114401610269A9
:103D500011490A808068488001208880C8807819CD
:103D6000052810D800200BE0C21901EB420232F8FE
:103D7000023D1B0A04F8013B127804F8012B401C99
:103D8000A842F1DB00E001263046BDE8F0810000EA
:103D9000740100200CFEFFFFA8110020104810B590
:103DA000416991F82110890703D40E490020087059
:103DB00013E0016921B180220A48FCF704FC0CE001
:103DC00000F0FEFD08B108A100E009A10548FCF7DC
:103DD000A0FA09A10348FCF72AFB024810BD000025
:103DE00078000020140B00206D7368200000000094
:103DF00066696E73682000003E000000034949694F
:103E000011F8212F60F341020A70704778000020FA
:103E1000014AC2E900017047780000207FB51449CB
:103E20001448FFF7F5FF154C13480A23A0F58F65DA
:103E3000606115224FF48061A0F580608DE80F006D
:103E400000230F4A0FA1783801F034FB0646002307
:103E50001A460EA1606901F023FA0120FFF7CEFF98
:103E600016B9284601F08AFB04B0002070BD00009E
:103E70007C660008EC650008101000207800002027
:103E8000953E0008747368656C6C00007368727806
:103E900000000000984D686910F8211F41F00101F1
:103EA0000170FFF77BFF01F0B7F8002600F046FF36
:103EB0000400FBD41B2C07D0686990F8201001295E
:103EC00007D002290ED017E06969012081F820008F
:103ED000ECE75B2C02D080F820600DE0022180F836
:103EE0002010E3E780F82060412CDFD0422CDDD0A9
:103EF000442C38D0432C43D0002CD7D0FF2CD5D025
:103F0000092C4ED07F2C75D0082C73D00D2C70D07E
:103F10000A2CFCD0B0F87210502901D3A0F87260BE
:103F2000B0F87430B0F872108B427DD2CA1A00F12A
:103F3000220123301944184401F0A8F86869B0F848
:103F4000741022300C54686990F82110C90706D00B
:103F5000B0F874102230014468A001F05DF868697F
:103F6000B0F87440A5E0B0F8740000289ED064A0BA
:103F700001F052F8686930F8741F491E018095E716
:103F8000B0F87410B0F8722091428FD22230095CE0
:103F90005CA001F041F8696931F8740F401C088099
:103FA00084E7002403E056A001F036F8641C686939
:103FB000B0F87400A042F6DC6C6953A0223401F022
:103FC0002BF800F0FDFC012802D1204600F034FC63
:103FD000FFF7E4FE014622464CA001F01DF8686997
:103FE0002230FCF7BAF9696921F8720F48805DE761
:103FF00000E03DE0B0F87420002AC0D0B0F87210A4
:10400000521E491E89B293B2A0F87210A0F8743003
:10401000994224D9CA1A00F12301223019441844C4
:1040200001F034F8686900E049E0B0F8721022301D
:104030000E546869B0F874102230014435A000F0C5
:10404000EBFF6869B0F8744003E02DA000F0E4FFD6
:10405000641C6869B0F87200A04290DBF5E72FA0FD
:1040600000F0DAFF6869B0F8721022300E541DE7D4
:1040700000F0A6FC01280DD1686990F82100C00766
:1040800002D021A000F0C8FF6869B0F87210223099
:1040900000F028FCFFF782FE00F0BEFF68695021A7
:1040A0002230FCF747FA686922E015A000F0B4FF5F
:1040B000641C6869B0F87200A042F6DC0AE02230A5
:1040C0000C54686990F82100C00703D021460DA068
:1040D00000F0A2FF6869B0F87210491C89B2A0F81C
:1040E0007210B0F87420521CA0F874205029BED36E
:1040F00020F8726F4680D9E6780000202573000012
:1041000008000000256300000A00000025732573E5
:104110000000000008257320200800000820080087
:1041200010B5124C2068800702D511A000F074FF72
:104130002068400011D50D48C01E007808B1FFF777
:104140007FF90A48001F007808B100F009FB074812
:10415000801E008808B101F053FD2068002804DAB1
:10416000BDE8104008A000F057BF10BD2CED00E0E6
:104170006661696C656420766563746F722066653C
:104180007463680A000000006465627567206576E4
:10419000656E740A0000000010B502A000F03CFF3C
:1041A000002010BD48656C6C6F2052542D5468720D
:1041B000656164210A0000000A4C4FF400464FF488
:1041C000FA75002231462046FCF797FE284601F09A
:1041D00022F9012231462046FCF78FFE284601F0E5
:1041E0001AF9EEE7000C014070B50CA000F014FFC6
:1041F0000F48104D04680BE002220FA12068FCF765
:10420000CBF820B1D4E900120CA000F005FF0C346B
:1042100028688442F0D3002070BD00002D2D467523
:104220006E6374696F6E204C6973743A0A00000003
:10423000780000207C0000205F5F0000252D3136D3
:1042400073202D2D2025730A000000002DE9F04178
:1042500004461E4617460D46084600F067FF001D3F
:104260002060257200206760C4E90360BDE8F0812A
:104270002DE9F0410D4600212961E96891B1297AC3
:1042800081B12E6888B10446FBF7BEFF0146A4F158
:104290000C002A7A007A20F08000904209D008466B
:1042A000FBF7B6FF0020BDE8F0813446FBF7ACFF1A
:1042B0000146686800272468B44201D1002404E064
:1042C00010C0EA687F1CBA42F5D10846FBF7A0FF90
:1042D00020462F61E7E700002DE9F04194B0002768
:1042E00033A408230BAA022105A8FFF7AFFF08207B
:1042F00080460146224631A000F08EFE404600F086
:10430000C9FB35A000F088FE05A93846FFF7B0FFCD
:104310000746002642E00BA850F826400C3CFBF76D
:1043200073FF217A9DF81C2021F08001914202D078
:10433000FBF76EFF31E0FBF76BFF04F114006169DE
:10434000054681421ED000F085FEA18BCDE900100C
:1043500023460822414626A000F05EFE2C680BE0B2
:10436000A4F1140126A000F057FE2068A84202D054
:1043700024A000F051FE2468AC42F1D115A000F059
:104380004BFE0AE000F066FEA18BCDE9001023464B
:10439000082241461CA000F03FFE761C0998B0425E
:1043A000B9DC002FB0D114B00020BDE8F0810000CE
:1043B00073656D6170686F7265000000252D2A2E8F
:1043C00073207620202073757370656E6420746886
:1043D000726561640A000000202D2D2D202D2D2DE9
:1043E0002D2D2D2D2D2D2D2D2D2D2D0A00000000D4
:1043F000252D2A2E2A7320253033642025643A0087
:10440000257300002F000000252D2A2E2A73202559
:104410003033642025640A002DE9F041B4B0002651
:104420003CA408232CAA012126A8FFF70FFF08208F
:10443000804601462246394800F0EEFD404600F035
:1044400029FB37A000F0E8FD26A93046FFF710FF52
:104450000646002554E02CA850F825400C3CFBF7FC
:10446000D3FE0746207A9DF8A01020F080008842F5
:1044700003D03846FBF7CCFE41E07822214607A85E
:10448000FCF726F83846FBF7C3FE94F83500009099
:1044900023460822414632A000F0BEFD94F83400C5
:1044A00000F00F00012807D0022807D040B10428EF
:1044B00008D0032808D00AE02CA006E02EA004E0D3
:1044C00030A002E032A000E034A000F0A5FDA06A18
:1044D000014600E0401C0278232AFBD0E26A401A21
:1044E000101A64235843B0FBF2F3276B206CCDE91C
:1044F0000007E069081A81182BA000F08DFD6D1CE3
:104500002A98A842A7DC002E9ED134B00020BDE836
:10451000F08100007468726561640000F063000857
:10452000202D2D2D20202D2D2D2D2D2D2D202D2DEF
:104530002D2D2D2D2D2D2D2D202D2D2D2D2D2D2DB8
:104540002D2D2D20202D2D2D2D2D2D20202D2D2DCF
:104550002D2D2D2D2D2D2D202D2D2D0A000000006F
:10456000252D2A2E2A7320253364200020726561B0
:1045700064792020000000002073757370656E64FC
:104580000000000020696E697420202000000000F7
:1045900020636C6F73652020000000002072756E30
:1045A0006E696E6700000000203078253038782072
:1045B0003078253038782020202025303264252599
:1045C00020202030782530387820253033640A00C8
:1045D000F0B593B0002626A408230BAA0A2104A84C
:1045E000FFF734FE08272246394623A000F014FDC9
:1045F000384600F04FFA2AA000F00EFD04A930461C
:10460000FFF736FE0646002524E00BA850F82540AB
:104610000C3CFBF7F9FD217A9DF8182021F0800170
:10462000914202D0FBF7F4FD13E0FBF7F1FDD4E972
:104630000901CDE9000123460822394621A000F0F6
:10464000EBFC607AC00701D024A000E026A000F0B7
:10465000E3FC6D1C0898A842D7DC002ECED101F0F7
:104660001FF8014624A000F0D7FC13B00020F0BDD5
:1046700074696D6572000000252D2A2E732020704C
:104680006572696F64696320202074696D656F7558
:104690007420202020202020666C61670A00000022
:1046A000202D2D2D2D2D2D2D2D2D2D202D2D2D2D54
:1046B0002D2D2D2D2D2D202D2D2D2D2D2D2D2D2D37
:1046C0002D2D0A00252D2A2E2A73203078253038EA
:1046D00078203078253038782000000061637469D4
:1046E00076617465640A000064656163746976616B
:1046F0007465640A0000000063757272656E742050
:104700007469636B3A3078253038780A000000000D
:1047100008B5FCF741FEFEF7C4FBFEF733FAFEF7DF
:1047200013FAFEF767FAFEF7D5FAFEF79FFAFBF7E2
:10473000FCFF002001224FF4E13311460090FFF707
:104740006BF9FEF789FFFEF775FA00BFFFF7C8F9AE
:10475000FCE710B500F0A6FABDE81040FFF7D8BF9F
:1047600010B518A000F058FC1B4C21781BA000F0DD
:1047700053FC2078C00702D01EA000F04DFC20782A
:10478000800702D51EA000F047FC2078000702D564
:104790001EA000F041FC2078C00602D51EA000F04B
:1047A0003BFC2078000607D50B480C300168BDE8BB
:1047B00010401CA000F030BCBDE810401D4800F0C7
:1047C0002BBC00006D656D206D616E6167652066B4
:1047D00061756C743A0A000028ED00E05343425FB3
:1047E000434653525F4D4653523A30782530325843
:1047F000200000004941434356494F4C200000002F
:104800004441434356494F4C200000004D554E5300
:10481000544B4552522000004D53544B45525220A8
:10482000000000005343422D3E4D4D41523A253089
:1048300038580A00705C00082DE9F04780460025D2
:1048400000782C4618B12248224F066831E0BDE8B6
:10485000F0470021084600F077B806221EA1306814
:10486000FBF79AFD20BB306800F106094046FBF7D4
:1048700074FD024649464046FBF78EFDC0B925B996
:104880004C464846FBF769FD05464946204601E08F
:10489000401C491C02781AB10B780BB19A42F7D030
:1048A000001BA84200DA054649460DA000F0B4FB03
:1048B0000C3638688642D0D3002C06D02A462146D2
:1048C0004046BDE8F04700F05DBDBDE8F087000060
:1048D000780000207C0000205F5F636D645F000053
:1048E00025730A0038B5044601E0491E641C59B11D
:1048F00020782028F9D00928F7D06A462046FEF70C
:10490000FFFC18B1204604E0002038BD009838BDF7
:10491000401C0178202901D00029F9D10021017023
:10492000214603A000F078FB4FF0FF3038BD0000B7
:1049300025733A20636F6D6D616E64206E6F742015
:10494000666F756E642E0A0070B50EA000F064FBF1
:104950001348144D04680CE0062213A12068FBF7ED
:104960001BFD28B9D4E9001211A0891D00F054FBE9
:104970000C3428688442EFD310A000F04DFB0020D7
:1049800070BD000052542D546872656164207368D4
:10499000656C6C20636F6D6D616E64733A0A000024
:1049A000780000207C0000205F5F636D645F000082
:1049B000252D313673202D2025730A000A000000B2
:1049C0000120704770B5002315461C461A464BE07F
:1049D00000F8012B5B1C0678202E01D0092E01D196
:1049E0008B42F5D3082C11D321A000F015FB002633
:1049F00006E000BF55F8261025A000F00DFB761C40
:104A0000A642F7D321A000F007FB2FE08B422DD266
:104A1000F6B2222E03D045F82400641C1BE0401C93
:104A200045F824005B1C641C08E05C2E04D1467829
:104A3000222E01D1401C5B1C401C5B1C0678222EE0
:104A400001D08B42F1D38B4210D200F8012B5B1CBA
:104A50000AE0401C5B1C0678202E03D0092E01D0F2
:104A60008B42F6D38B4201D28B42B4D3204670BD29
:104A7000546F6F206D616E79206172677320212001
:104A80005765206F6E6C79205573653A0A000000F7
:104A90002573200010B5044602E003A000F0BCFA24
:104AA000641EFAD210BD00002D0000002DE9F04F69
:104AB00085B09946DDE90EA5109CAB46630602D58C
:104AC000DFF814C103E0DFF810C1ACF1110CE3060C
:104AD00001D524F00104E30701D0302300E02023B6
:104AE00000260493A3070BD5002A02DA2D26524292
:104AF00006E0630701D52B2602E0230700D5202618
:104B00000023EE4622B930228DF8002001230CE06C
:104B1000B9F10A0F14D002F00F0812091CF808802E
:104B20000EF803805B1C002AF2D1AB4200DD1D466B
:104B3000AAEB050214F0110F4FF0200708D015E082
:104B40000A27B2FBF7F807FB1828B2FBF7F2E5E7F4
:104B50003EB1002A05DD521E03E0884200D20770F4
:104B6000401CB2F1000CA2F10102F6DC26B1884231
:104B700000D20670401C521EE40605D508E08842AB
:104B800001D2049C0470401C141EA2F10102F6DC48
:104B900030242E466D1E9E420ADD884200D20470EB
:104BA000401CF6E7884201D2E55C0570401C00E03D
:104BB00074461D1EA3F1010307DDBBF1000FF1D107
:104BC00003E0884200D20770401C131EA2F10102CC
:104BD000F7DC05B0BDE8F08FDD610008002804D0E7
:104BE000012803D0072803D0042070470220704713
:104BF0000620704710B5092801D8303004E0A0F134
:104C00000A01052902D83730C0B210BDFBF776FB88
:104C1000002203E010F8013B1A44D2B2491E89B2C7
:104C2000F8D25042C0B27047014800680047000007
:104C3000D80000200148006800470000D000002094
:104C40000148006800470000D40000201FB50A4C4E
:104C500014230A224FF48061A4F580608DE80F00D0
:104C60000023064A06A1204600F024FC04B020469A
:104C7000BDE8104000F082BCE00700205347000868
:104C80006D61696E0000000070B5044C044D02E0D7
:104C900020688047241DAC42FAD370BDD865000857
:104CA000E065000870B5044C044D02E020688047C0
:104CB000241DAC42FAD370BDE0650008E865000829
:104CC00010B5FBF7A1FA044A5188491C5180BDE890
:104CD0001040FBF79DBA00004800002010B5FBF71C
:104CE00093FA0B4C6188491E09B2618000290ADCE5
:104CF00000216180FBF78CFA6068002807D0BDE8CE
:104D0000104000F055BABDE81040FBF781BA10BD65
:104D10004800002010B5FCF73FFBFEF7C2F8FEF795
:104D2000EFF8FCF76BFC4FF47A71B0FBF1F0FCF795
:104D300051FEBDE81040FFF7A7BF0000084810B5BE
:104D400000684FF0FF340168C943890602D4406807
:104D5000C4B202E00A2000F0C5FBE0B210BD0000C2
:104D6000D00A0020F8B506460D200F498DF8000046
:104D7000002481F83C40304600F0FCFA05460FE084
:104D8000305D0A2805D101231A4669460648FDF719
:104D9000A5F9012331191A460348FDF79FF9641C50
:104DA000AC42EDD3F8BD0000D00A002070B5054636
:104DB000041D2D48016819B128468847002851D0A4
:104DC0002AA0E16B00F028F92CA0216A00F024F958
:104DD0002EA0616A00F020F930A0A16A00F01CF951
:104DE00032A0E16A00F018F934A0216800F014F94B
:104DF00036A0616800F010F938A0A16800F00CF945
:104E00003AA0E16800F008F93CA0216900F004F93B
:104E10003EA0616900F000F940A0A16900F0FCF833
:104E200042A0E16900F0F8F844A0216B00F0F4F82A
:104E300046A0616B00F0F0F848A0A16B00F0ECF820
:104E40002878400708D500F073FB014647A000F022
:104E5000E3F8FFF7E1FA02E04CA000F0DDF8FFF71D
:104E60005FF9FEE770BD0000680000207073723AC1
:104E7000203078253038780A000000007230303A4F
:104E8000203078253038780A000000007230313A3E
:104E9000203078253038780A000000007230323A2D
:104EA000203078253038780A000000007230333A1C
:104EB000203078253038780A000000007230343A0B
:104EC000203078253038780A000000007230353AFA
:104ED000203078253038780A000000007230363AE9
:104EE000203078253038780A000000007230373AD8
:104EF000203078253038780A000000007230383AC7
:104F0000203078253038780A000000007230393AB5
:104F1000203078253038780A000000007231303AAD
:104F2000203078253038780A000000007231313A9C
:104F3000203078253038780A000000007231323A8B
:104F4000203078253038780A00000000206C723A52
:104F5000203078253038780A000000002070633A4D
:104F6000203078253038780A0000000068617264CB
:104F7000206661756C74206F6E2074687265616460
:104F80003A2025730D0A0D0A000000006861726462
:104F9000206661756C74206F6E2068616E646C654C
:104FA000720D0A0D0A00000070B50446121D22F0B1
:104FB00007000022094D403840F82250521C102AA8
:104FC000FAD301620021416281624FF0807200F1E8
:104FD0003005C263C16285E81A0070BDEFBEADDE68
:104FE00010B5FBF711F9044A1178491C1170BDE89E
:104FF0001040FBF70DB900001400002010B5FBF7BE
:1050000003F9044A1178491E1170BDE81040FBF7FE
:10501000FFB80000140000200FB47F2110B503ABCF
:105020000448029A00F048FC0248FFF79BFE10BCBF
:105030005DF814FB500900200268516002680A60A4
:105040000160486070470268516002680A60016050
:10505000486070470246002100E0491C0068904209
:10506000FBD108467047D0E900124A60D0E900122F
:105070001160406000607047D0E900124A60D0E9DA
:1050800000121160406000607047000010B50346D8
:10509000994211D28C189C420ED9811804E000BFAD
:1050A00014F8013D01F8013D521EF9D210BD00BFB8
:1050B00011F8014B03F8014B521EF9D210BD00004C
:1050C00010B50346CCB2042A1AD3810718D1194669
:1050D00044EA042343EA034306E008C1103A08C146
:1050E00041F8083B41F8043C102AF6D201E008C11F
:1050F000121F042AFBD20B4602E000BF03F8014B4B
:10510000521EFBD210BD10B5044600202072FBF7E2
:105110007BF8F4E903124A60D4E90012116064607C
:105120002460BDE81040FBF773B80000074A002177
:1051300002EB01131B78834202D102EB011070478E
:10514000491C0329F4DB00207047000018000020F0
:105150002DE9F041054617460E460846FFF7E6FFE3
:105160000446FFF7ADFD211D606800E0006888423D
:10517000FCD1FFF7B3FD46F08000287208223946C3
:10518000284600F0FFF8FBF73FF854F8041F0C35F1
:105190004D602168296025606C60BDE8F041FBF737
:1051A00037B8007A000601D501207047002070470B
:1051B00070B5FBF729F8114C05466088B0B9A068B6
:1051C000FEF77CF80E49401E626851F83010143921
:1051D00091420BD020700B486160007801F11C01F6
:1051E000002802F11C0006D0FBF715F82846BDE8A0
:1051F0007040FBF70DB8FBF70EF8F7E7480000200A
:10520000D00900201400002010B50446FAF7FCFF76
:10521000024694F834000E4920F00F00401C84F838
:10522000340094F8350001EBC00104F114004B6820
:1052300018604B68A361486006486161A16B836890
:1052400019438160BDE810401046FAF7E1BF000045
:10525000D00900204800002010B50446FAF7D4FF1A
:1052600004F11401D1E900235360D1E900231A604D
:10527000A161616194F83520074951F8323001EBA2
:10528000C2018B4204D10549A36B8A689A438A60A4
:10529000BDE81040FAF7BCBFD0090020480000204C
:1052A0002DE9F04116460A461F4605460221FFF742
:1052B0004FFF05F11404AC616C61AE836F72002086
:1052C000BDE8F08108B509A0FFF7A6FE0AA0FFF728
:1052D000A3FE12A0009005230122032112A0FFF7D4
:1052E0009BFEBDE8084018A0FFF796BE0A205C2090
:1052F0007C202F0A000000002D205254202D202059
:10530000202020546872656164204F70657261745A
:10531000696E672053797374656D0A004465632074
:105320003330203230323200202F207C205C20208D
:1053300020202025642E25642E2564206275696C4A
:10534000642025730A0000002032303036202D20E2
:105350003230323020436F7079726967687420622E
:10536000792072742D746872656164207465616D52
:105370000A000000014600E0491C0A78002AFBD11F
:10538000081A704710B5002A07D0034611F8014BE0
:1053900003F8014B2CB1521EF8D110BD03F8011BCC
:1053A00000E00021521EF9D110BD000010B50A49DD
:1053B00000230A4C4B80184604EBC002401C52608C
:1053C00012602028F8DB1F20087003484B600C3067
:1053D0008B604060006010BD48000020D0090020B4
:1053E00010B5074CA068FDF769FF0649401E51F84B
:1053F000300014386060BDE810401C30FAF739BF47
:1054000048000020D009002001484060006070473B
:1054100060000020704700F091B8000070B514489B
:105420000468FAF7F1FE05462046FDF7FAFF20462C
:10543000FFF712FF042084F8340004F1440000F068
:10544000B5F92046FFF7ADFE01280CD004F1140198
:105450000848FFF7F1FD00BFFFF7AAFE2846BDE8A8
:105460007040FAF7D5BE2046FFF74DFEF4E7000086
:105470004C00002054000020FEE700001FB5094842
:1054800020231F2280218DE80F000023064A07A158
:10549000783800F00FF804B00248BDE810407838C2
:1054A00000F06CB8D0080020795400087469646C6E
:1054B000650000002DE9FF5F92460EAA0C4692E8B7
:1054C000E0010A46994683460121FFF741FE8DE837
:1054D000E0014B46524621465846FDF75FFF04B0B7
:1054E000BDE8F09F10B500F0C1F8BDE8104000F035
:1054F00025B870B5044690F8340000F00F0002287B
:1055000002D04FF0FF3070BDFAF77EFE054604F181
:105510001400FFF7A8FD04F1440000F0B5F9284697
:10552000FAF776FE2046FFF76FFE002070BD000000
:1055300001480068704700004C000020F1B5FAF700
:1055400063FE05460C480468204600F02DF804F17F
:1055500044006A460021064600F004F9304600F097
:1055600051F92846FAF754FEFFF722FE206B801C03
:1055700000D120630020F8BD4C00002010B590F849
:105580003610012280F835108A400221826380F8AB
:105590003410FFF7AEFF0348006808B1FFF708FEBC
:1055A000002010BD4C00002070B5044690F8340077
:1055B00000F00F00012802D04FF0FF3070BDFAF765
:1055C00023FE05462046FFF747FE94F8340020F0FE
:1055D0000F00801C84F8340004F1440000F054F9FA
:1055E0002846FAF715FE002070BD10B504466FF08E
:1055F0000100206304F11400FFF735FD2046FFF79A
:1056000003FEBDE81040FFF7D3BD000070B5FAF708
:10561000FBFD06461348046894F8340000F00F00C0
:10562000012819D1D4E90501884215D004F11400EC
:105630000546FFF718FD94F835000B4901EBC00053
:1056400041680D6041686960456028603046FAF73E
:10565000DFFDFFF7ADFD02E03046FAF7D9FD00208F
:1056600070BD00004C000020D0090020002802DAA4
:105670004FF0FF3070474FF47A7190FBF1F290FBDE
:10568000F1F301FB130000EB40034A43C3EBC010EE
:105690004B1E03EBC00090FBF1F01044704700007C
:1056A000014800687047000010000020094810B54C
:1056B0000168491C0160FFF73BFF016C491E016452
:1056C00003D1C16B0164FFF7A1FFBDE8104000F0FA
:1056D00003B80000100000202DE9FC41CDF804D0F3
:1056E000CDF800D0FFF7DCFF0646FAF78DFD074640
:1056F0001B4D2DE060696FF00041301A143C884268
:1057000029D22046FDF78AFE607A810702D420F074
:105710000100607204F1140188466846FFF793FCAB
:10572000D4E907108847FFF7BBFF06460098694693
:1057300088420DD04046FFF79FFC607A810707D56D
:10574000C10705D020F001006072204600F05AF831
:105750002C68AC42CED13846FAF75AFDBDE8FC8140
:105760006000002070B515460E460446FAF74CFD61
:10577000052E17D2DFE806F00503080C1100616A58
:105780000FE0296861620DE0617A21F0020102E018
:10579000617A41F00201617204E0617AC90700D0C8
:1057A00001212960FAF734FD002070BD70B5044670
:1057B000FAF72AFD05462046FDF730FE607A20F014
:1057C000010060722846FAF723FD2046FFF79BFC94
:1057D000002070BD2DE9F0411746DDE906580A4664
:1057E0001E4604460A21FFF7B3FC28F0010161724E
:1057F0000021C4E90951C4E90776143464602460C7
:10580000BDE8F0812DE9F8430446FAF7FDFC804637
:105810002046FDF703FE607A20F001006072FFF77A
:105820003FFF616A174A4318A3620020009202EB0F
:10583000C002694656686FF000475DF820200AE014
:105840001268A2EBC0056D699D4202D0ED1ABD42FF
:1058500003D341F82020B242F2D10A48001F016868
:10586000491C016004F114010098FFF7ECFB607A19
:1058700040F0010060724046FAF7CAFC0020BDE823
:10588000F88300006000002070B50446407AC0072D
:105890000ED0FAF7B9FC05462046FDF7BFFD607A49
:1058A00020F0010060722846FAF7B2FC002070BDBB
:1058B0004FF0FF3070BD00002DE9FF4F89460446D0
:1058C00000EB090783B080464FF0FF3A4FF0200B02
:1058D000A74202D25746C8F1FF390BE1252803D071
:1058E000BC4200D2207080E000260599491C059139
:1058F00008782D2811D02B2812D0202813D0232847
:1059000014D0302815D00A785546303A0A2A13D2D6
:1059100005A800F030F905461AE046F01006E4E765
:1059200046F00406E1E746F00806DEE746F020060A
:10593000DBE746F00106D8E72A2809D10698491C7A
:10594000059120C80690002D02DA6D4246F010063F
:105950000598D44601782E2918D1401C059001786D
:10596000A1F130020A2A04D205A800F004F9844605
:1059700007E02A2908D1401C0590069850F804CB6E
:105980000690BCF1000F01DA4FF0000C059A0020E0
:105990001178682901D06C2902D1521C0846059261
:1059A00011780A236F2974D00CDC63291FD004DC22
:1059B00025296FD058290DD184E0642901D06929A7
:1059C00008D183E0702966D073292CD075297FD047
:1059D000782979D0BC4201D2252020700598641C1A
:1059E0000178E9B3BC4200D22170641C7FE0F0066C
:1059F00008D458466D1E002D04DDBC4200D2207034
:105A0000641CF7E70698BC4210F8041B069000D20D
:105A10002170584602E0BC4200D22070641C6D1E0A
:105A2000002DF8DC63E0069802C8069001B941A198
:105A3000002000E0401CA84202D00A5C002AF9D1F4
:105A4000BCF1000F02DD604500DD6046F2060BD4BC
:105A50005A462B466D1E834206DDBC4202D200E050
:105A600054E02270641CF4E7002206E0BC4201D23C
:105A70000B782370491C521C641C8242F6DB5A4688
:105A800029466D1E814232DDBC4200D22270641C68
:105A9000F6E715E010E0681C02D1082546F0010683
:105AA000CDE9005C06980296102304C8069039469A
:105AB000204619E00CE007E0BC4296D2252011E711
:105AC000082305E046F04006102301E046F00206F8
:105AD0006C2801D068281CD0069804C80690CDE92F
